:020000040000FA
:100000000C945E000C9486000C9486000C94860080
:100010000C9486000C9486000C9486000C94860048
:100020000C9486000C9486000C9486000C94860038
:100030000C9486000C9486000C9486000C94860028
:100040000C944C050C9486000C94BC050C949605FD
:100050000C9486000C9486000C9486000C94860008
:100060000C9486000C9486000000000024002700F9
:100070002A0000000008000201000003040700003D
:10008000000000000000010204081020408001026E
:1000900004081020010204081020000000002500C0
:1000A00028002B00040404040404040402020202D5
:1000B0000202030303030303EE05A00811241FBE7D
:1000C000CFEFD8E0DEBFCDBF21E0A4E2B1E001C0B8
:1000D0001D92AE3EB207E1F711E0A0E0B1E0E0E929
:1000E000F6E102C005900D92A432B107D9F710E0F5
:1000F000CDE5D0E004C02197FE010E943309CC3544
:10010000D107C9F70E94A1060C943B0B0C94000088
:1001100090E0FC01EE58FF4F2491FC01EA57FF4F9D
:100120003491FC01EC55FF4FE491EE23B9F022230A
:1001300039F02330F1F098F4213009F1223019F12F
:10014000F0E0EE0FFF1FE656FF4FA591B4918FB779
:10015000F894EC9130953E233C938FBF089527305F
:10016000A9F02830C9F0243059F7809180008F7DA4
:1001700003C0809180008F7780938000E1CF84B5A9
:100180008F7784BDDDCF84B58F7DFBCF8091B000AC
:100190008F778093B000D4CF8091B0008F7DF9CF5E
:1001A0008F929F92AF92BF92CF92DF92EF92FF9287
:1001B000CF934B01AA24BB24C82DC52ED62EE72EE3
:1001C000FF24BC2DA42F2091DC01222361F0829E0C
:1001D00040011124C92D2C9D60011124BD2D249FA7
:1001E000F0011124AF2FE091E201E090DD01F090E9
:1001F000DE013091DF01E31323C09C01220F331F86
:10020000820F931F8E0D9F1DE091DF01E80FF92FE4
:10021000F11DC083E091E001E80FF92FF11DB083DB
:100220002091E101820F911DFC01A083CF91FF90ED
:10023000EF90DF90CF90BF90AF909F908F900895F8
:10024000880F991F880F991F8E0D9F1D472F5527C7
:1002500066277727222349F030E0249F7001259FED
:10026000F00C349FF00C11244F2DE80FF92FF11DE5
:100270004083CACFCF93DF9390E0FC01EA57FF4F52
:1002800024918C559F4FFC0184918823D1F090E0FC
:10029000880F991FFC01E859FF4FA591B491FC010B
:1002A000E656FF4FC591D49161110EC09FB7F894E7
:1002B0008C91E22FE0958E238C932881E223E883B2
:1002C0009FBFDF91CF9108958FB7F894EC91E22B07
:1002D000EC938FBFF6CF3FB7F894809129019091AE
:1002E0002A01A0912B01B0912C0126B5A89B05C035
:1002F0002F3F19F00196A11DB11D3FBFBA2FA92FA5
:10030000982F8827BC01CD01620F711D811D911DA1
:1003100042E0660F771F881F991F4A95D1F708950D
:100320000F931F93CF93DF93CDB7DEB729970FB607
:10033000F894DEBF0FBECDBF8091DD019091DE014C
:10034000892B09F47CC00E946B010091E30110919C
:10035000E4012091E5013091E60160177107820701
:10036000930740F46093E3017093E4018093E50107
:100370009093E6010091E3011091E4012091E501E1
:100380003091E601601B710B820B930B6C32714054
:1003900081059105C0F2F8948091D8019091D9011E
:1003A0009A838983E091DD01F091DE01DF011196EE
:1003B000808189879091D401E091E701F091E80173
:1003C0008091E901992309F445C09081982B988781
:1003D0009081809589238F838F818C8388E08B83A4
:1003E00058856F8149853B812C8189819A81508311
:1003F00047FD252F3A952083262F39F0441F00C052
:1004000000006083000000C0F2CF38E04D916083AF
:100410000000019761F7F093E801E093E701498755
:100420003B832C839A83898378940E946B01609329
:10043000E3017093E4018093E5019093E60129962E
:100440000FB6F894DEBF0FBECDBFDF91CF911F91E5
:100450000F9108959081982B98879081809589239A
:100460008F838F818E8388E08D8358856F81498546
:100470003D812E8189819A81508347FD252F00C0BF
:1004800000C0208300C000C000C000C000C0608366
:100490000000262F3A9541F0441F000000C000C024
:1004A00000C000C000C0E8CF38E04D9100C06083BC
:1004B00000C0019709F7F093E801E093E70149874D
:1004C0003D832E83AFCF8F929F92AF92BF92CF92F8
:1004D000DF92EF92FF920E946B014B015C0184E678
:1004E000C82ED12CE12CF12C0E946B0168197909DE
:1004F0008A099B09683E734081059105A8F321E0B4
:10050000C21AD108E108F10888EE880E83E0981E2F
:10051000A11CB11CC114D104E104F10429F7FF901E
:10052000EF90DF90CF90BF90AF909F908F90089505
:10053000AF92BF92CF92DF92EF92FF920F931F93F1
:10054000CF93DF936C017B018B01040F151FEB012F
:100550005E01AE18BF08C017D10759F06991D601E6
:10056000ED91FC910190F081E02DC6010995892B58
:1005700079F7C501DF91CF911F910F91FF90EF9017
:10058000DF90CF90BF90AF900895FC01538D448DC4
:10059000252F30E0842F90E0821B930B541710F02E
:1005A000CF96089501970895FC01918D828D98173B
:1005B00061F0A28DAE0FBF2FB11D5D968C91928D13
:1005C0009F5F9F73928F90E008958FEF9FEF089544
:1005D0002FB7F89480912D0190912E01A0912F01B9
:1005E000B09130012FBF8093390190933A01A093CD
:1005F0003B01B0933C0181E391E00E94D40297FF5C
:1006000026C02FB7F89480912D0190912E01A091D2
:100610002F01B09130012FBF4091390150913A0123
:1006200060913B0170913C01841B950BA60BB70BAD
:100630004091350150913601609137017091380138
:1006400084179507A607B707B0F28FEF9FEF0895BD
:10065000FC01918D828D981731F0828DE80FF11D8C
:10066000858D90E008958FEF9FEF0895FC01918DA7
:10067000228D892F90E0805C9F4F821B91098F73A0
:100680009927089581E391E00E94360321E0892BA8
:1006900009F420E0822F089580E090E0892B29F072
:1006A0000E94420381110C9400000895FC01A48D66
:1006B000A80FB92FB11DA35ABF4F2C91848D90E084
:1006C00001968F739927848FA689B7892C93A08967
:1006D000B1898C91837080648C93938D848D9813F1
:1006E00006C00288F389E02D80818F7D8083089584
:1006F000EF92FF920F931F93CF93DF93EC0181E072
:10070000888F9B8D8C8D98131AC0E889F989808118
:1007100085FF15C09FB7F894EE89FF896083E8894B
:10072000F98980818370806480839FBF81E090E03D
:10073000DF91CF911F910F91FF90EF900895F62ECA
:100740000B8D10E00F5F1F4F0F731127E02E8C8D64
:100750008E110CC00FB607FCFACFE889F9898081A9
:1007600085FFF5CFCE010E945603F1CFEB8DEC0F44
:10077000FD2FF11DE35AFF4FF0829FB7F8940B8FC6
:10078000EA89FB8980818062CFCFCF93DF93EC0130
:10079000888D8823B9F0AA89BB89E889F9898C9169
:1007A00085FD03C0808186FD0DC00FB607FCF7CF25
:1007B0008C9185FFF2CF808185FFEDCFCE010E9425
:1007C0005603E9CFDF91CF910895CF93DF93EC01EA
:1007D00088819981009711F00E94D50919821882A9
:1007E0001D821C821B821A82DF91CF910895FC0129
:1007F00080819181009711F00C94D5090895CF92D2
:10080000DF92EF92FF92CF93DF934091D801509106
:10081000D90170E060E08091DD019091DE010E94DD
:10082000240B8091D2019091D301892B09F462C0ED
:100830006AE171E08091CE019091CF010E942B0B73
:10084000EC01892B09F056C04091D8015091D90193
:1008500070E060E08091DD019091DE010E94240B48
:1008600080910001C0902601D12CF12CE12CFE2CAE
:10087000ED2CDC2CCC24E82A80912401C82A80911C
:10088000D6019091D701C817D90728F4B701A6015E
:10089000CE010E94D0000E9490010E946302219626
:1008A000CF30D10589F6CEE0D0E04091D80150910B
:1008B000D90170E060E08091DD019091DE010E943D
:1008C000240B8091D6019091D701C817D90728F43D
:1008D000B701A601CE010E94D0000E9490010E94A3
:1008E0006302219710F7DF91CF91FF90EF90DF9097
:1008F000CF900895D0E0C0E08091D6019091D701CB
:10090000C817D90790F4809100014091260150E06A
:1009100070E060E0762F652F542F4427682B80917C
:100920002401482BCE010E94D0000E949001219604
:10093000CF30D10509F7D7CF0F931F93CF93DF9314
:10094000EC0188819981009759F02A813B81261713
:10095000370730F081E0DF91CF911F910F9108951B
:100960008B016F5F7F4F0E945E0A009759F0998359
:1009700088831B830A832C813D81232B59F7FC013B
:100980001082E8CF80E0E7CFEF92FF920F931F93A2
:10099000CF93DF93EC017B018A01BA010E949C0492
:1009A00081110BC0CE010E94E503CE01DF91CF91F2
:1009B0001F910F91FF90EF9008951D830C83B70155
:1009C000888199810E94340BF0CFFB0101900020B7
:1009D000E9F73197AF01461B570B0C94C404FB0198
:1009E00001900020E9F73197AF01461B570B0C949B
:1009F000C404AF92BF92CF92DF92EF92FF920F9317
:100A00001F93CF93DF93EC015B016A0179012417F7
:100A1000350720F48D2D6901E42EF82E19821882F5
:100A20001B821A821D821C8263E271E0CE010E9449
:100A3000EF04D50114960D911C91C016D106E8F46F
:100A4000E016F10608F48701D501ED91FC911197AC
:100A5000E00FF11FF08010826D917C916C0D7D1D77
:100A6000CE0161157105A9F00E94E504F5018081B0
:100A70009181080F191FD801FC92CE01DF91CF910F
:100A80001F910F91FF90EF90DF90CF90BF90AF90AC
:100A900008950E94E503EACF1F920F920FB60F92BE
:100AA00011242F933F938F939F93AF93BF93809184
:100AB0002D0190912E01A0912F01B0913001309124
:100AC000280123E0230F2D3758F50196A11DB11DF4
:100AD0002093280180932D0190932E01A0932F0144
:100AE000B09330018091290190912A01A0912B01AE
:100AF000B0912C010196A11DB11D80932901909305
:100B00002A01A0932B01B0932C01BF91AF919F912B
:100B10008F913F912F910F900FBE0F901F901895BE
:100B200026E8230F0296A11DB11DD2CF1F920F926E
:100B30000FB60F9211242F933F934F935F936F93B0
:100B40007F938F939F93AF93BF93EF93FF9381E333
:100B500091E00E945603FF91EF91BF91AF919F9159
:100B60008F917F916F915F914F913F912F910F9056
:100B70000FBE0F901F9018951F920F920FB60F92F5
:100B800011242F938F939F93EF93FF93E091410153
:100B9000F09142018081E0914701F091480182FD8E
:100BA0001BC0908180914A018F5F8F7320914B0110
:100BB000821741F0E0914A01F0E0EF5CFE4F958F23
:100BC00080934A01FF91EF919F918F912F910F9008
:100BD0000FBE0F901F9018958081F4CF10923401B2
:100BE0001092330188EE93E0A0E0B0E080933501ED
:100BF00090933601A0933701B09338018CE091E0D7
:100C0000909332018093310185EC90E090933E0106
:100C100080933D0184EC90E09093400180933F01EC
:100C200080EC90E0909342018093410181EC90E050
:100C3000909344018093430182EC90E090934601AD
:100C40008093450186EC90E09093480180934701A2
:100C500010924A0110924B0110924C0110924D01DA
:100C60001092D5011092DC011092E3011092E40180
:100C70001092E5011092E60181E08093E2018093F9
:100C8000DF011092E00192E09093E1018093D401A2
:100C90008DE290E09093D9018093D8010E943909A8
:100CA0009093DE018093DD01009709F441C02DE2AD
:100CB000FC0111922A95E9F78FE090E09093D7011B
:100CC0008093D60187E090E09093DB018093DA0176
:100CD0008091D501882339F061E087E00E943A01D4
:100CE00087E00E948800EBEAF0E0E491F0E0EE0F8C
:100CF000FF1FE656FF4F859194919093E8018093F2
:100D0000E701EDE8F0E0E491E093E9011092CF0112
:100D10001092CE011092D1011092D0011092D30105
:100D20001092D2016EE171E08EEC91E00C94EF0430
:100D30001092D9011092D8011092D7011092D601C9
:100D4000C1CFCF93DF93CDB7DEB762970FB6F894DC
:100D5000DEBF0FBECDBF789484B5826084BD84B5FC
:100D6000816084BD85B5826085BD85B5816085BDA6
:100D700080916E00816080936E001092810080915E
:100D800081008260809381008091810081608093E6
:100D90008100809180008160809380008091B1000B
:100DA00084608093B1008091B00081608093B00036
:100DB00080917A00846080937A0080917A008260CA
:100DC00080937A0080917A00816080937A0080918C
:100DD0007A00806880937A001092C100E09141010E
:100DE000F091420182E08083E0913D01F0913E016B
:100DF0001082E0913F01F09140018FEC80831092CE
:100E00004901E0914501F091460186E08083E0913F
:100E10004301F0914401808180618083E09143012E
:100E2000F0914401808188608083E0914301F091DA
:100E30004401808180688083E0914301F091440106
:100E400080818F7D80838091DA019091DB0197FD15
:100E500007C061E00E943A018091DA010E94880097
:100E600081E08093D50180E0A82E80E0B82E81E358
:100E700091E00E943603181619060CF0D8C01E86A1
:100E80001D86188A1F861A8A198A63E271E0CE01CC
:100E90000D960E94EF040E94E80209891A8997FDC5
:100EA0001CC08A309105C9F089831A820F5F1F4FD9
:100EB000B801CE010D960E949C04882361F32D8514
:100EC0003E8589899A89BE016F5F7F4F820F931F8C
:100ED0000E94340B1A8B098BDECFCD84DE84C114C3
:100EE000D10429F076010115110509F0AFC08989F7
:100EF0009A89099709F050C023E030E050E040E0C3
:100F0000BE01635F7F4FCE0101960E94F904898183
:100F10009A81009709F4D0C00E94B4087093270109
:100F200060932601CE0101960E94F70326E030E08F
:100F300043E050E0BE01635F7F4FCE0101960E9407
:100F4000F90489819A81009709F4BAC00E94B40813
:100F50007093010160930001CE0101960E94F70396
:100F600029E030E046E050E0BE01635F7F4FCE01F4
:100F700001960E94F90489819A81009709F4A4C01E
:100F80000E94B4087093250160932401CE0101965C
:100F90000E94F7030E94FF0389899A89059709F047
:100FA00042C023E030E050E040E0BE01635F7F4F8D
:100FB000CE0107960E94F90425E030E044E050E0BD
:100FC000BE01635F7F4FCE0101960E94F9048D81BF
:100FD0009E81892B09F481C062E271E089819A8146
:100FE0000E942B0B892B09F078C06EE171E08EEC2A
:100FF00091E00E94E5040E9463020E94FF036F815A
:1010000078856115710509F463C04B855C858EECAC
:1010100091E00E94C404CE0101960E94F703CE0124
:1010200007960E94F703CE010D960E94F7030E94D7
:10103000FF03A114B10409F41ACF0E9442038823CC
:1010400009F415CF0E94000012CF740147018FEF01
:10105000881A980AF7018081082E000C990B0E94CB
:10106000F008892B91F7015011090C0D1D1DF80195
:101070008081082E000C990B0E94F008892B31F01A
:101080000E151F0518F001501109F1CFA8014F5F8F
:101090005F4F4E195F095A8B498BCE14DF0420F441
:1010A000B701C6010E941B0BED85FE8589899A89CF
:1010B000E80FF91F10821BCF60E070E0CB012ECF4C
:1010C00060E070E0CB0144CF60E070E0CB015ACF2C
:1010D0008EEC91E00E94E5039ECF2B853C858091AC
:1010E000D2019091D3012817390709F094CF8F814D
:1010F00098856091CE017091CF01009761F06115E4
:10110000710531F4232BA9F0FC01808190E00EC021
:101110000E942B0B0BC06115710559F0232B49F070
:10112000FB01808190E0919581959109892B09F0CF
:1011300072CF6EE171E08EEC91E00E94E5046BCF1E
:101140008EEC91E00E94F7038091DD019091DE0129
:101150000E94D5098091DA019091DB0197FD03C0CF
:1011600060E00C943A0108951F93FC0199278827A9
:10117000BC01E89411911032E9F3193010F01E30DF
:10118000C8F31B3251F01D3249F4689406C00E9426
:10119000DB08610F711D811D911D119110531A30D3
:1011A000B0F33EF490958095709561957F4F8F4F89
:1011B0009F4F1F910895592F482F372F262F660FC5
:1011C000771F881F991F660F771F881F991F620F4F
:1011D000731F841F951F660F771F881F991F08951F
:1011E00091110C94F908803219F089508550C8F794
:1011F00008959927882708952F923F924F925F92E2
:101200006F927F928F929F92AF92BF92CF92DF9216
:10121000EF92FF920F931F93CF93DF93CDB7DEB77B
:10122000CA1BDB0B0FB6F894DEBF0FBECDBF09940F
:101230002A88398848885F846E847D848C849B8466
:10124000AA84B984C884DF80EE80FD800C811B8174
:10125000AA81B981CE0FD11D0FB6F894DEBF0FBEA3
:10126000CDBFED010895EE0FFF1F0590F491E02D25
:1012700009940F931F93CF93DF938230910510F45D
:1012800082E090E0E091EC01F091ED0130E020E0AF
:10129000B0E0A0E0309799F42115310509F44AC077
:1012A000281B390B24303105D8F58A819B816115C3
:1012B000710589F1FB0193838283FE0111C0408196
:1012C00051810281138148175907E0F048175907E7
:1012D00099F4109761F012960C93129713961C9341
:1012E0003296CF01DF91CF911F910F910895009316
:1012F000EC011093ED01F4CF2115310551F04217A7
:10130000530738F0A901DB019A01BD01DF01F801A3
:10131000C1CFEF01F9CF9093ED018093EC01CDCFD8
:10132000FE01E20FF31F819391932250310939831B
:101330002883D7CF2091EA013091EB01232B41F490
:1013400020910401309105013093EB012093EA01D3
:1013500020910201309103012115310541F42DB78F
:101360003EB74091060150910701241B350BE091D7
:10137000EA01F091EB01E217F307A0F42E1B3F0BFB
:101380002817390778F0AC014E5F5F4F24173507F7
:1013900048F04E0F5F1F5093EB014093EA01819399
:1013A00091939FCFF0E0E0E09CCFCF93DF93009745
:1013B000E9F0FC01329713821282A091EC01B09106
:1013C000ED01ED0130E020E01097A1F420813181A2
:1013D000820F931F2091EA013091EB012817390702
:1013E00009F061C0F093EB01E093EA01DF91CF9146
:1013F0000895EA01CE17DF07E8F54A815B819E0177
:1014000041155105B1F7E901FB83EA8349915991EF
:10141000C40FD51FEC17FD0761F4808191810296FE
:10142000840F951FE90199838883828193819B832F
:101430008A83F0E0E0E012968D919C9113970097DB
:10144000B9F52D913C911197CD010296820F931F12
:101450002091EA013091EB012817390739F63097CE
:1014600051F51092ED011092EC01B093EB01A093B5
:10147000EA01BCCFD383C28340815181840F951F81
:10148000C817D90761F44E5F5F4F88819981480F73
:10149000591F518340838A819B81938382832115C5
:1014A000310509F0B0CFF093ED01E093EC019ECF50
:1014B000FD01DC01C0CF13821282D7CFB0E0A0E0E3
:1014C000E4E6FAE00C94FE088C01009751F4CB019D
:1014D0000E9439098C01C801CDB7DEB7E0E10C9458
:1014E0001A09FC01E60FF71F9C0122503109E2178F
:1014F000F30708F49DC0D901CD91DC911197C6176F
:10150000D70798F0C530D10530F3CE010497861780
:10151000970708F3C61BD70B2297C193D1936D93FE
:101520007C93CF010E94D509D6CF5B01AC1ABD0ACE
:101530004C018C0E9D1EA091EC01B091ED01512C3F
:10154000412CF12CE12C109731F58091EA0190911A
:10155000EB018815990509F05CC04616570608F09E
:1015600058C08091020190910301009741F48DB71A
:101570009EB74091060150910701841B950BE81717
:10158000F90708F055C0F093EB01E093EA01F90187
:1015900071836083A0CF8D919C91119712966C906E
:1015A000129713967C901397A815B90559F56C01FD
:1015B00042E0C40ED11CCA14DB0420F1AC014A196C
:1015C0005B09DA011296159780F06282738251836B
:1015D0004083D9016D937C93E114F10471F0D7013C
:1015E0001396FC93EE93129776CF22968C0F9D1F45
:1015F000F90191838083F301EFCFF093ED01E09344
:10160000EC0169CF4816590608F42C017D01D3017D
:101610009ACFCB010E9439097C01009749F0AE01B5
:10162000B8010E941B0BC8010E94D509870153CF46
:1016300010E000E050CFFB01DC0102C001900D92F0
:1016400041505040D8F70895DC0101C06D934150DE
:101650005040E0F70895FB01DC018D910190801965
:101660000110D9F3990B0895FB01DC0101900D9253
:101670000020E1F7089510E0CDE5D0E004C0FE01C0
:101680000E9433092196CE35D107C9F7F894FFCFD0
:1016900096000000EE018000000000007803980230
:1016A000C502C5033603D40228036B6E7200616C59
:0416B0006C00310099
:107E0000112484B714BE81FFF0D085E080938100F7
:107E100082E08093C00088E18093C10086E0809377
:107E2000C20080E18093C4008EE0C9D0259A86E02C
:107E300020E33CEF91E0309385002093840096BBD3
:107E4000B09BFECF1D9AA8958150A9F7CC24DD24C4
:107E500088248394B5E0AB2EA1E19A2EF3E0BF2EE7
:107E6000A2D0813461F49FD0082FAFD0023811F036
:107E7000013811F484E001C083E08DD089C08234E0
:107E800011F484E103C0853419F485E0A6D080C0E4
:107E9000853579F488D0E82EFF2485D0082F10E0AE
:107EA000102F00270E291F29000F111F8ED06801E7
:107EB0006FC0863521F484E090D080E0DECF843638
:107EC00009F040C070D06FD0082F6DD080E0C81688
:107ED00080E7D80618F4F601B7BEE895C0E0D1E017
:107EE00062D089930C17E1F7F0E0CF16F0E7DF06D8
:107EF00018F0F601B7BEE89568D007B600FCFDCFD4
:107F0000A601A0E0B1E02C9130E011968C91119780
:107F100090E0982F8827822B932B1296FA010C0160
:107F200087BEE89511244E5F5F4FF1E0A038BF0790
:107F300051F7F601A7BEE89507B600FCFDCF97BE46
:107F4000E89526C08437B1F42ED02DD0F82E2BD052
:107F50003CD0F601EF2C8F010F5F1F4F84911BD097
:107F6000EA94F801C1F70894C11CD11CFA94CF0C13
:107F7000D11C0EC0853739F428D08EE10CD085E9AC
:107F80000AD08FE07ACF813511F488E018D01DD067
:107F900080E101D065CF982F8091C00085FFFCCF94
:107FA0009093C60008958091C00087FFFCCF809118
:107FB000C00084FD01C0A8958091C6000895E0E648
:107FC000F0E098E1908380830895EDDF803219F02E
:107FD00088E0F5DFFFCF84E1DECF1F93182FE3DFCA
:107FE0001150E9F7F2DF1F91089580E0E8DFEE27F6
:047FF000FF270994CA
:027FFE00040479
:00000001FF
